:020000040800F2
:1000000000000A201D360608010A0008050A00083B
:10001000090A00080D0A0008110A00080000000083
:10002000000000000000000000000000150A0008A9
:10003000190A0008000000001D0A0008210A000833
:100040006D3606086D3606086D3606086D360608EC
:100050006D3606086D3606086D3606083D0A00083E
:100060006D3606086D3606086D3606086D360608CC
:100070006D3606086D3606086D3606086D360608BC
:100080006D3606086D3606086D3606086D360608AC
:100090006D3606086D3606086D3606086D3606089C
:1000A0006D3606086D3606086D3606086D3606088C
:1000B0006D3606086D3606086D3606086D3606087C
:1000C0006D3606086D3606086D3606086D3606086C
:1000D0006D3606086D3606086D3606086D3606085C
:1000E0006D3606086D3606086D3606086D3606084C
:1000F0006D3606086D3606086D36060800000000ED
:100100006D360608310A00086D3606086D36060899
:100110006D3606086D3606086D3606086D3606081B
:100120006D3606086D3606086D3606086D3606080B
:100130006D3606086D3606086D3606086D360608FB
:100140006D3606086D3606086D3606086D360608EB
:100150006D3606086D3606086D3606086D360608DB
:100160006D3606086D3606086D3606086D360608CB
:100170006D3606086D3606086D360608000000006C
:100180006D3606086D3606086D3606086D360608AB
:100190006D3606086D3606080000000000000000FD
:1001A00000000000000000006D3606086D360608ED
:0C01B0006D3606086D3606086D36060830
:1001C00010B5054C237833B9044B13B10448AFF391
:1001D00000800123237010BDA01600200000000045
:1001E000A49A080808B5034B1BB103490348AFF3B1
:1001F000008008BD00000000A4160020A49A080892
:10020000154B002B08BF134B9D46A3F5803A0021E8
:100210008B460F461348144A121A7FF0CFFC0F4B3F
:10022000002B00D098470E4B002B00D098470020A1
:10023000002104000D000D48002802D00C4883F076
:10024000C7F87FF0C9F82000290063F05BF87FF061
:10025000B3F800BF0000080000000000000000002C
:1002600000000000A0160020A8730220D133080867
:100270001D430808F0B50021BFB00C4606A8442273
:100280007FF09CFC21469C2217A8CDE90144CDE9D2
:10029000034405947FF092FC204603F033FB3023A7
:1002A000012602256022069305273C2306A8CDE9F6
:1002B00013370E920D940F960C96CDE9116610959A
:1002C000CDE9155500F06AFF39460F22032301A836
:1002D000CDE90123CDE9034405940D4F01F04AFA1D
:1002E0004FF4804110224FF4803317A827942894AC
:1002F0002C9432943494CDE91866CDE91B551D95A4
:10030000179735911A921E9301F0C4FD3FB0F0BDCE
:1003100046280800704700BF0A4B1A6E42F00102DF
:100320001A661A6E82B002F001020092009A9A6D6B
:1003300042F080529A659B6D03F080530193019BBC
:1003400002B07047001002402DE9F0410168244AD4
:1003500088B000239142CDE90333CDE905330793FB
:1003600002D008B0BDE8F0811E4CE36C43F00203FC
:10037000E364E36C03F002030093009BE36C43F03F
:100380004003E364E36C03F040030193019B4FF0EF
:10039000120803F057FB012740230326042503A975
:1003A00011480795CDE90338CDE9057602F0CEFF77
:1003B0004FF4005303A90D480393CDE90487CDE919
:1003C000066502F0C3FFA36D43F40013A365A36D9C
:1003D00003F400130293029B08B0BDE8F08100BF54
:1003E000005400400010024000040048001800487B
:1003F00008B50268094B9A4200D008BD084A09486E
:10040000936D23F400139365402103F09FF84FF49C
:1004100000510548BDE8084003F098B8005400407A
:10042000001002400004004800180048F0B50268BF
:10043000214B89B000249A42CDE90344CDE905441B
:10044000079401D009B0F0BD1C4B1D48DA6C42F492
:100450008002DA64DA6C02F480020092009ADA6CAC
:1004600042F00802DA64DA6C02F008020192019AA2
:10047000DA6C42F00402DA64DB6C0C2503F004034E
:1004800002930227042303260DEB0501029ACDE90E
:100490000337CDE9066502F059FF4FF4F8530DEB31
:1004A000050108480497CDE906650594039302F019
:1004B0004DFF09B0F0BD00BF0024065000100240FF
:1004C000000C00480008004808B50268094B9A4231
:1004D00000D008BD084A0948D36C23F48003D364D4
:1004E000042103F033F84FF4F8510548BDE8084003
:1004F00003F02CB80024065000100240000C004805
:1005000000080048F0B50268204B89B000249A42E8
:10051000CDE90344CDE90544079401D009B0F0BD0D
:1005200003F5EC3302279A6D194842F480429A652C
:100530009A6D02F480420092009ADA6C42F4807262
:10054000DA64DA6C02F480720192019ADA6C42F099
:100550000202DA64DB6C03F0020302930326012338
:10056000052503A9029ACDE90337CDE9066502F016
:10057000EDFE4FF4604303A906480497CDE90665F4
:100580000594039302F0E2FE09B0F0BD003800408C
:10059000002000480004004808B50268094B9A4250
:1005A00000D008BD084A0948936D23F48043936541
:1005B000012102F0CBFF4FF460410548BDE808403F
:1005C00002F0C4BF00380040001002400020004884
:1005D00000040048F0B50368334A8BB0002493420E
:1005E000CDE90544CDE9074409943BD02F4A934215
:1005F00001D00BB0F0BD2E4B9A6D42F480229A656B
:100600009A6D02F480220292029ADA6C42F00102A0
:10061000DA64DA6C02F001020392039ADA6C42F0B7
:100620000202DA64DB6C03F00203049302274FF446
:1006300000430326072505A94FF09040049ACDE911
:100640000537CDE9086502F081FE4FF4406305A946
:1006500018480697CDE908650794059302F076FEE1
:100660000BB0F0BD124B9A6D42F400329A659A6D50
:1006700002F400320092009ADA6C42F00102DA646D
:10068000DB6C03F0010301930322072305A90C256A
:1006900002244FF09040019ECDE90554CDE9082396
:1006A00002F054FE0BB0F0BD004400400048004092
:1006B000001002400004004808B5144A0368934241
:1006C00016D0134A934200D008BD02F5E4324FF42D
:1006D0000041936D23F4802393654FF0904002F026
:1006E00035FF4FF440610B48BDE8084002F02EBFD3
:1006F00002F5E6320C21936D23F4003393654FF03D
:100700009040BDE8084002F021BF00BF0044004017
:10071000004800400004004830B5036889B0002458
:10072000B3F1A04FCDE90344CDE90544079401D0CE
:1007300009B030BD204DEB6C43F00103EB64EB6C72
:1007400003F00103009302214FF4E05303220098C9
:10075000039304910A2303A94FF090400692079354
:1007600002F0F4FD4FF4007303A94FF0904003939F
:10077000CDE9044402F0EAFDEB6C43F48053EB64F2
:10078000EB6C03F480530193019BAB6DDB0003D54D
:1007900003F048F909B030BDAB6D43F08053AB6551
:1007A000AB6D03F080530293029B03F03BF9AB6DFA
:1007B00023F08053AB65BBE7001002400368B3F140
:1007C000A04F00D0704710B5124CE36C23F4805357
:1007D000E36482B04FF4F0514FF0904002F0B6FE67
:1007E000A36DDB0004D502B0BDE8104003F022B9D0
:1007F000A36D43F08053A365A36D03F08053019371
:10080000019B03F017F9A36D23F08053A36502B099
:1008100010BD00BF00100240F0B5294A87B014682F
:100820000023CDE90133CDE9033305930CB107B0C3
:10083000F0BD03F18043012103F5043311601A6D0B
:1008400020480A431A651B6D0B40022703260C251E
:10085000009301A94FF69B73009ACDE90137CDE9CA
:10086000046502F073FD4FF6FB7301A9164801936E
:100870000297CDE90465039402F068FD802301A985
:10088000124801930297CDE90465039402F05EFDDE
:100890004FF23F0301A90E4801930297CDE9046589
:1008A000039402F053FD3F2301A90A480297CDE9C2
:1008B00004650394019302F049FD07B0F0BD00BF49
:1008C000F01D002000100048000C00480004004803
:1008D000001400480018004808B5124B5A6802B1CD
:1008E00008BD114911480A6D22F001020A65012272
:1008F0004FF69B715A6002F029FE4FF6FB710C48CF
:1009000002F024FE80210B4802F020FE4FF23F014E
:10091000094802F01BFE3F210848BDE8084002F0EC
:1009200015BE00BFF01D002000100240001000485E
:10093000000C00480004004800140048001800485B
:100940000268174B9A4200D07047F0B5154A936879
:1009500087B04BB91449086E40F400100866096E60
:1009600001F400110091009910480024013301A9FD
:1009700002260D254FF408779360CDE90176CDE985
:100980000344059502F0E2FC642301A908480193A1
:10099000CDE90264CDE9044502F0D8FC07B0F0BD12
:1009A00004540140F01D00200010024000040048E3
:1009B0000010004808B502680C4B9A4200D008BDF0
:1009C0000B4A9368013B936023B90A4A136E23F4E0
:1009D000001313664FF40871074802F0B7FD642155
:1009E0000648BDE8084002F0B1BD00BF0454014014
:1009F000F01D0020001002400004004800100048D4
:100A0000704700BFFEE700BFFEE700BFFEE700BF84
:100A1000FEE700BF704700BF704700BF704700BFD0
:100A200008B500F075F9BDE808405FF06DBB00BF88
:100A3000014806F0B7BE00BF101E0020022002F0E1
:100A400063BE00BF0D4B0E481A68002142F0010240
:100A500010B41A6099601A6822F0A85222F4102289
:100A60004FF480541A60DC601A684FF0006422F47E
:100A700080221A609961846010BC704700100240A7
:100A800000ED00E0264B26481A682649120754BF9D
:100A9000D3F894301B68826854BFC3F30323C3F3B5
:100AA000031302F00C02082A10B451F8233011D0BD
:100AB0000C2A11D01C48042A08BF0346184A1B48B8
:100AC000926810BCC2F30312114491F83020D34055
:100AD00003607047164BF1E7C468C26804F0030076
:100AE000C2F30312022802F1010212D0032814D12A
:100AF0000F4BB3FBF2F30A4AD068D268C2F34162EB
:100B00000132C0F30620520003FB00F3B3FBF2F303
:100B1000D4E7054BB3FBF2F3EDE7B3FBF2F3EAE7FF
:100B200000100240C09A08080024F40004000020CD
:100B300000127A00704700BF0120704708B57EF0B0
:100B400035FC162303604FF0FF3008BD08B57EF07A
:100B50002DFC16230360FEE770B5161E07DD0C465C
:100B60008D19AFF3008004F8010BA542F9D130468E
:100B700070BD00BF70B5161E07DD0C468D1914F848
:100B8000010BAFF30080A542F9D1304670BD00BF24
:100B90004FF0FF30704700BF4FF400534B60002010
:100BA000704700BF01207047002070470EB44FF01F
:100BB000FF3003B0704700BF08B57EF0F7FB0A2393
:100BC00003604FF0FF3008BD08B57EF0EFFB022355
:100BD00003604FF0FF3008BD4FF0FF30704700BF9B
:100BE0004FF400534B600020704700BF08B57EF003
:100BF000DDFB1F2303604FF0FF3008BD08B57EF01A
:100C0000D5FB0B2303604FF0FF3008BD08B57EF025
:100C1000CDFB0C2303604FF0FF3008BD0C4A08B534
:100C2000136833B118446946884208D810601846E2
:100C300008BD084B1360184469468842F6D97EF017
:100C4000B5FB0C2303604FF0FF33184608BD00BF0F
:100C5000001E0020A8730220EC2B0C0800000020CE
:100C6000A0160020A0160020A8730220704700BF25
:100C7000704700BF10B5094B4FF0FF3200249A6354
:100C80009C631A641C649A629C62DA62DC621A6376
:100C90001C63FFF7EDFF204610BD00BF00100240AF
:100CA00070B50F4E33680BB9012070BD0D494FF47C
:100CB0007A720546B2FBF3F30868B0FBF3F002F07A
:100CC00055FA04460028EFD10F2DEDD802462946EB
:100CD0004FF0FF3002F0E0F97560204670BD00BFB4
:100CE0000C0000200400002000B5032083B002F0B7
:100CF000C1F90020FFF7D4FF18B1012003B05DF85F
:100D000004FB0190FFF708FB019803B05DF804FBBA
:100D1000034A0449136809680B441360704700BF15
:100D2000041E00200C000020014B1868704700BF13
:100D3000041E0020014B5868704700BF0C000020C3
:100D400038B5064D2B68834206D004466868FFF725
:100D5000A7FF00B92C6038BD002038BD0C00002072
:100D6000014B1868704700BF0C00002038B50446DE
:100D7000FFF7DAFF631C054602D0044B1B681C44D6
:100D8000FFF7D2FF401BA042FAD338BD0C00002071
:100D9000024A136823F002031360704710E000E07A
:100DA000024A136843F002031360704710E000E04A
:100DB0004FF08570704700BF014B1868000C7047FA
:100DC000002004E0024B1868C0F30B00704700BF1E
:100DD000002004E0014B1868704700BF9075FF1FAA
:100DE000014B1868704700BF9475FF1F014B1868CE
:100DF000704700BF9875FF1F024A536843F0010314
:100E000053607047002004E0024A536823F0010356
:100E100053607047002004E0024A536843F0020325
:100E200053607047002004E0024A536823F0020335
:100E300053607047002004E0024A536843F0040303
:100E400053607047002004E0024A536823F0040313
:100E500053607047002004E0054B064A10B453204D
:100E6000CA2401215C62586210BC1160704700BF47
:100E70000000014000032042014B01221A6070472C
:100E800020002042014B00221A60704720002042BF
:100E9000034A136823F0040318431060704700BF2F
:100EA00030000140034A136823F002031843106026
:100EB000704700BF30000140034A536823F03F03EE
:100EC00018435060704700BF3000014038B50A4CED
:100ED000236843F001032360FFF726FF054604E083
:100EE000FFF722FF401B0A2804D823681B07F7D509
:100EF000002038BD032038BD30000140024A13688D
:100F000023F001031360704730000140024A536828
:100F100043F480735360704700000140024A5368F5
:100F200023F48073536070470000014030B51E4DBC
:100F3000AB6DDB0083B0044619D502F0D1FCB0F5EF
:100F4000007F26D07F2C2BD8A4F17004B4FA84F44F
:100F5000640916490B6823F00F0323430B600868EC
:100F600000F00F00001B18BF012003B030BDAB6DB7
:100F700043F08053AB65AB6D03F080530193019B4D
:100F800002F0AEFCAB6DB0F5007F23F08053AB6593
:100F9000D8D1802C06D9A02C8CBF02240124D8E7FC
:100FA0000224D6E70024D4E70010024000200240CB
:100FB000F8B5354C236843F001032360FFF7B4FE16
:100FC000054604E0FFF7B0FE401B022816D8236850
:100FD0009B07F7D523682D482D4A2E4923F0F003AF
:100FE00043F0600300252360A56000681160FFF7EF
:100FF00057FE044628B101242046F8BD03242046AC
:10100000F8BDFFF791FE05F18045074605F504356B
:1010100041F2883604E0FFF787FEC01BB042EDD8EE
:10102000AB6813F00C0FF6D12A681B4B164E134019
:101030002B60FFF779FE054604E0FFF775FE401BC5
:101040000228DBD8336813F02853F6D1F360F26836
:1010500042F48052F2603361326942F4805232616C
:101060007361726942F48052726132684FF0FF31ED
:1010700022F480223260B3613162D6F8943043F4B6
:101080000003C6F89430BAE70010024010000020B8
:101090000400002000093D00FFF4FEEA70B5114C89
:1010A000E36C43F00103E364E36C86B00D46022079
:1010B00003F001034FF4807100930191002301A913
:1010C000029004904FF0904016460393009A0593C7
:1010D00002F03CF9A16821F0FE4131432943A160AF
:1010E00006B070BD00100240284A9368D26813F021
:1010F0000C0308D00C2B38D0042B34D0082B2448F8
:1011000018BF00207047214A1168090754BFD2F860
:10111000942012681F4954BFC2F30322C2F3031282
:1011200051F8220003B30C2B2DD1184BDB6803F0D0
:101130000303022B25D0164A032B08BF1046134B7E
:10114000D968DA68DB68C3F341630133C1F3031183
:10115000C2F3062200FB02F201315800B2FBF1F3A8
:10116000B3FBF0F070470C48704702F00302012A0D
:10117000C9D0064BDB6803F00303022B4FF00000DD
:10118000D9D10548DBE70020704700BF00100240BE
:1011900040787D01C09A08080024F400002800F07F
:1011A000B5812DE9F0439A4A03689568D6680446EC
:1011B000D80683B005F00C0506F0030600F1F980AF
:1011C000D90729D5082D00F06F810C2D00F0698119
:1011D0006368B3F5803F00F0AF81B3F5A02F00F056
:1011E0006D828B4F3A6822F480323A603A6822F47A
:1011F00080223A60002B40F0A481FFF795FD8046E5
:1012000006E0FFF791FDA0EB0800642800F27A8168
:101210003B689803F5D42368990723D5042D00F083
:1012200050810C2D00F04A81E368794E002B00F0CC
:10123000C281336843F480733360FFF775FD07465E
:1012400005E0FFF771FDC01B022800F25B813368E7
:101250005B05F6D57368226923F0FE4343EA026317
:1012600073602368190719D56369694E002B00F074
:101270004F81D6F8943043F00103C6F89430FFF75D
:1012800053FD074605E0FFF74FFDC01B022800F2A3
:101290003981D6F894309A07F5D52368580742D596
:1012A0005B4B9A6DD10000F184819A6D42F08052BF
:1012B0009A659B6D03F080530193019B0127554E66
:1012C0003268D20540F10D81A368012B00F0EE8158
:1012D000052B00F0CB814E4ED6F8902022F0010273
:1012E000C6F89020D6F8902022F00402C6F890208C
:1012F000002B40F0C881FFF717FD41F28838814686
:1013000006E0FFF711FDA0EB0900404500F2FA806E
:10131000D6F890309907F4D427B13D4A936D23F065
:101320008053936523689A0618D5636A384E002B5C
:1013300000F05381D6F8983043F00103C6F8983096
:10134000FFF7F2FC074605E0FFF7EEFCC01B0228A2
:1013500000F2D880D6F898309B07F5D5A06A30B354
:101360000C2D00F04E81022800F0B581284B1A6840
:1013700022F080721A601A6812F0205F03D1DA68D6
:1013800022F00302DA60224CE36823F0887323F42E
:101390008033E360FFF7C8FC054605E0FFF7C4FCB7
:1013A000401B022800F2AE8023689B01F6D4002087
:1013B00074E0002D32D00C2D2ED0A369144F002BD9
:1013C00000F0CE803B6843F001033B60FFF7ACFCCC
:1013D000804606E0FFF7A8FCA0EB0800022800F218
:1013E00091803B689B07F5D53B6843F008033B6061
:1013F0003B68226A23F0F00313433B607B68E26999
:1014000023F47F4343EA02237B602368D8E600BFCE
:101410000010024000700040012ECED1B24B1B687C
:10142000990737D4B04B206A1A68120756BFD3F811
:1014300094301B681B0903F0F003984240F2A2802D
:10144000FFF774FD48BBA84B1A6842F008021A6007
:101450001A68216A22F0F0020A431A605A68E169A8
:1014600022F47F4242EA01225A60FFF73DFE9E4B82
:101470009E4A9B689E49C3F30313D35C9D4A03F0C5
:101480001F0320FA03F308681360FFF709FC28B96B
:10149000236895E6A369002BC4D1012003B0BDE801
:1014A000F083032E7FF494AE8F4A126892037FF587
:1014B000B3AE6268002A7FF4AFAEEEE7022E7FF48F
:1014C000B3AE894A1268520502D5E268002AE4D018
:1014D000854920694A6822F0FE4242EA00624A6079
:1014E000C0E6326842F480723260FFF71DFC80462D
:1014F0003368DB053FF5E8AEFFF716FCA0EB08000C
:101500000228F5D9032003B0BDE8F083012070471D
:10151000D6F8943023F00103C6F89430FFF704FCAA
:10152000074604E0FFF700FCC01B0228EAD8D6F803
:1015300094309B07F6D4B0E66B4A136843F48033CB
:101540001360FFF7F1FB684F804605E0FFF7ECFB07
:10155000A0EB08006428D5D83B689B03F6D55AE673
:101560003B6823F001033B60FFF7DEFB804605E0AC
:10157000FFF7DAFBA0EB08000228C3D83B68980706
:10158000F6D485E7584B1A6842F008021A601A68C8
:1015900022F0F00202431A605A68E16922F47F42A5
:1015A00042EA01225A60FFF7C1FC00283FF45DAF18
:1015B00073E7002783E6336823F480733360FFF713
:1015C000B3FB074604E0FFF7AFFBC01B022899D826
:1015D00033685805F7D4236844E6D6F8983023F0EA
:1015E0000103C6F89830FFF79FFB074604E0FFF7BA
:1015F0009BFBC01B022885D8D6F898309807F6D4F4
:10160000ACE601283FF44AAF374BE26ADB6803F0EF
:10161000030191427FF441AF216B03F0F0020139E5
:10162000B2EB011F7FF439AF616B03F4FE42B2EB02
:10163000012F7FF432AFA16B03F07842B2EBC16FA0
:101640007FF42BAFE26B5208013A03F4C001B1EB17
:10165000425F7FF422AF226C5208013A03F0C0636C
:10166000B3EB426F14BF0120002017E71E4BD3F8E5
:10167000902042F00402C3F89020D3F8902042F06A
:101680000102C3F89020FFF74FFB174E814641F24D
:10169000883806E0FFF748FBA0EB090040453FF61D
:1016A00031AFD6F890309807F4D535E60E4AD2F827
:1016B000903043F00103C2F89030E4E703F1804337
:1016C000A3F53C331A6842F480221A601A6842F487
:1016D00080321A6035E7044D2B6823F080732B604D
:1016E000FFF722FB06460DE000100240F09A0808C2
:1016F0001000002004000020FFF716FB801B0228CA
:101700003FF600AF2B689901F6D4E968174BE26AFF
:10171000676BA66B206B0B401343D4E90F1243EAAF
:101720000723013843EAC663490843EA0013013935
:10173000520843EA4153013A43EA4263EB602B68A3
:101740000B4C43F080732B60EB6843F08073EB60CD
:10175000FFF7EAFA054605E0FFF7E6FA401B022824
:101760003FF6D0AE23689A01F6D520E60C809D01A5
:1017700000100240002800F0DC80834A2DE9F84385
:10178000136803F00F038B420CD2136823F00F038E
:101790000B431360136803F00F038B4202D0012048
:1017A000BDE8F8830368DA0704460D4670D5426841
:1017B000032A7DD0754B022A1B6800F0BC80002AEA
:1017C00040F0BD809E07EAD5FFF78EFC704B984233
:1017D00000F2B98062684FF000086C4EB36823F0E5
:1017E00003031A43B260FFF79FFA41F2883781463C
:1017F00006E0FFF799FAA0EB0900B84200F2AE80CC
:10180000B368626803F00C03B3EB820FF1D1236875
:1018100099073FD4B8F1800F03D1B26822F0F002EB
:10182000B26059490A6802F00F02AA4209D90A684F
:1018300022F00F022A430A600A6802F00F02AA424D
:10184000ADD15A0706D55149E0688A6822F4E062B2
:1018500002438A601B0707D54C4A2169936823F429
:10186000605343EAC1039360FFF73EFC474B494C8A
:101870009B684949494AC3F30313E35C03F01F0320
:1018800020FA03F313600868BDE8F843FFF708BACD
:101890009F07C6D53D49A0688A6822F0F00202433E
:1018A0008A6039490A6802F00F02AA42BFD8C8E725
:1018B0003649086886017FF572AFC86800F00300FA
:1018C000012850D000213148C06800F003000228F0
:1018D00058D0334E032808BF31462C4E2C4FD6F833
:1018E0000CC0D6F80CE0F068C0F34160CCF3031CE8
:1018F000CEF3062E01300CF1010C01FB0EF140007D
:10190000B1FBFCF1B1FBF0F1B94229D9B16811F09A
:10191000F00F05D013F002083FF45FAFA368FBB9E6
:10192000B36823F0F00343F08003B3604FF0800806
:1019300053E7012070479F033FF546AF2FE7580557
:101940007FF52DAF40E7114A936823F0F00343F091
:101950008003936062684FF080083EE703201FE732
:101960004FF0000839E70868000754BFD1F8941019
:1019700009680C4854BFC1F30321C1F3031150F8A7
:101980002110A0E70849A8E700200240001002400B
:1019900000B4C404F09A08081000002004000020DD
:1019A00040787D01C09A08080024F400014B1868B3
:1019B000704700BF04000020054B064A9B6806499B
:1019C000C3F302230868D35C03F01F03D8407047B9
:1019D00000100240009B080804000020054B064A46
:1019E0009B680649C3F3C2230868D35C03F01F0356
:1019F000D840704700100240009B080804000020F7
:101A00003F22374B02601A68520359D54FF4A02386
:101A10004360334B1B6813F0010318BF012383613C
:101A20002F4B5A68C2F30722C2611A6802F0F00213
:101A300002621B682A4A13F4807318BF4FF4807344
:101A4000C3605368C3F306630361D2F8903059074B
:101A50003ED505238360224B214AD3F8943013F0FE
:101A6000010318BF012343611D4BD3F8983013F0D5
:101A7000010318BF01234362194B1B68DB014CBFF4
:101A8000022301238362D36803F00303C362D36894
:101A9000C3F3031301330363D368C3F30623436320
:101AA000D368C3F3415301335B00C363D368C3F30B
:101AB000416301335B000364D368DB0E83637047CB
:101AC0001B6813F4803318BF4FF480334360A0E7E2
:101AD000D2F8903013F0010318BF01238360BAE7F6
:101AE000001002400D4B0F2202609A6802F00302C0
:101AF00042609A6802F0F00282609A6802F4E06242
:101B0000C2609B68DB0810B403F4E063044C03611B
:101B1000236810BC03F00F030B60704700100240F5
:101B200000200240024A136843F400231360704708
:101B300000100240704700BF10B5054CE369DB059B
:101B400000D410BDFFF7F6FF4FF48073236210BD81
:101B500000100240B0F5006F10B439D0B0F5805FCE
:101B60001DD0414A106910F4803016D013691069F5
:101B70001469C3F30313E40E03F10103C0F3062059
:101B8000B1FBF3F105D1136913F4003F14BF112425
:101B9000072400FB01F0B0FBF4F010BC7047324B9F
:101BA000D3F89C3003F4E063B3F5407F32D0B3F553
:101BB000007F16D0002BD4D0802B2ED0B3F5806FB1
:101BC0002BD0202B32D0B3F5807F2FD00020E4E73C
:101BD000254BD3F89C3003F0E003602B1AD0402B48
:101BE000E8D1214AD06810F48030D6D0D368D068CC
:101BF000D468C3F30313E40E03F10103C0F306201A
:101C0000B1FBF3F1C5D1D36813F4003F14BF112425
:101C10000724BEE7154810BC7047134B14481B68D7
:101C200010BC13F4806F08BF002070470E4A506943
:101C300010F48030B1D0506953695469C0F3031077
:101C4000E40E00F10100C3F30623B1FBF0F005D16F
:101C5000526912F4003F14BF1124072403FB00F063
:101C6000B0FBF4F099E700BF0010024068FF1F00CE
:101C70000024F4003F4AF8B5D4680368A40706D0EE
:101C8000D26802F003029A420BD00120F8BD022B69
:101C900043D0032B4DD0012BF7D112689707F4D511
:101CA0003EE0002AF1D0334C236823F080632360A8
:101CB0000F460546FFF738F8064604E0FFF734F80C
:101CC000801B022833D823681A01F7D4D5E90123F1
:101CD000013A12011B02002F32D12669E868264919
:101CE00043EAC06331400B4313432361214C236813
:101CF00043F080632360FFF717F8064604E0FFF720
:101D000013F8801B022812D823681B01F7D5AA6993
:101D10002369134323610020F8BD12685605B4D52A
:101D2000144CE26822F003021343E360BBE7032094
:101D3000F8BD1468A503F3D412685403A5D5EFE7E2
:101D4000012F26690AD00D49686931400B434008CC
:101D50001A43013842EA40622261C7E7084928690C
:101D600031400B4340081343421E43EA4253236170
:101D7000BCE700BF001002400F80FF070F80FFF993
:101D80000F809FFF3F4AF8B5D4680368A40706D0C8
:101D9000D26802F003029A420BD00120F8BD022B58
:101DA00043D0032B4DD0012BF7D112689707F4D500
:101DB0003EE0002AF1D0334C236823F080532360A7
:101DC0000F460546FEF7B0FF064604E0FEF7ACFFFF
:101DD000801B022833D823689A00F7D4D5E9012361
:101DE000013A12011B02002F32D16669E8682649C8
:101DF00043EAC06331400B4313436361214C2368C2
:101E000043F080532360FEF78FFF064604E0FEF7A1
:101E10008BFF801B022812D823689B00F7D5AA6984
:101E20006369134363610020F8BD12685605B4D599
:101E3000144CE26822F003021343E360BBE7032083
:101E4000F8BD1468A503F3D412685403A5D5EFE7D1
:101E5000012F66690AD00D49686931400B4340087B
:101E60001A43013842EA40626261C7E708492869BB
:101E700031400B4340081343421E43EA425363611F
:101E8000BCE700BF001002400F80FF070F80FFF982
:101E90000F809FFF2DE9F047036813F4006682B0BE
:101EA00004461CD0C16E402900F03A8200F26F82D5
:101EB000002900F04682202940F06F820021203066
:101EC000FFF760FF064623684EB9E16EB048D0F8D0
:101ED0009C2022F0E0021143C0F89C100026D80498
:101EE00040F14381216FB1F5007F00F01F8200F2C5
:101EF0003381002900F02A82B1F5807F40F03481DF
:101F0000002104F12000FFF73DFF23680746002F62
:101F100040F015829E49206FD1F89C2022F4E062A7
:101F20000243C1F89C20990300F12381DA0708D508
:101F30009749E06BD1F8882022F003020243C1F8F0
:101F400088209D0708D59249206CD1F8882022F07E
:101F50000C020243C1F88820580708D58C49606CF0
:101F6000D1F8882022F030020243C1F888201907F6
:101F700008D58749A06CD1F8882022F0C00202431E
:101F8000C1F88820DA0608D58149E06CD1F88820AC
:101F900022F440720243C1F888209D0608D57C498E
:101FA000206DD1F8882022F440620243C1F88820D5
:101FB000980508D57649606ED1F8882022F4402231
:101FC0000243C1F88820590508D57149A06ED1F89F
:101FD000882022F440120243C1F888205A0608D50E
:101FE0006B49606DD1F8882022F440520243C1F859
:101FF00088201D0608D56649A06DD1F8882022F4F6
:1020000040420243C1F88820D80508D56049E06DF8
:10201000D1F8882022F440320243C1F88820D90246
:1020200008D55B49206ED1F89C2022F003020243C0
:10203000C1F89C209A0410D55549606FD1F88820CA
:1020400022F040620243B0F1006FC1F8882000F036
:102050004D81B0F1806F00F07F811D031AD5A06F14
:102060004B4AB0F5804FD2F89C1000F0318121F43A
:102070008041C2F89C10D2F8881021F040610143E1
:10208000B0F1006FC2F8881040F0EA80D16841F4E6
:102090008011D160580310D53D49E06FD1F88820F8
:1020A00022F040620243B0F1006FC1F8882000F0D6
:1020B0001881B0F1806F00F05A8159040DD5344871
:1020C000D4F88010D0F8882022F040520A43B1F1B1
:1020D000805FC0F8882000F00E81DA0309D52C4912
:1020E000D4F88400D1F89C2022F004020243C1F805
:1020F0009C209D0209D52649D4F88800D1F89C205F
:1021000022F018020243C1F89C20580200F1B78067
:102110001A020DD51E48D4F89010D0F89C2022F455
:1021200080520A43B1F5805FC0F89C2000F0EE8039
:10213000DB010DD5164AD4F89410D2F89C3023F464
:1021400040130B43B1F5001FC2F89C3000F08080B3
:10215000304602B0BDE8F087B1F5407F00F0158150
:10216000B1F5806F00F011810126374699037FF5A4
:10217000DDAE074B9A6DD2005ED54FF00008054DDD
:102180002B6843F480732B60FEF7CEFD81460AE096
:102190000010024000700040FEF7C6FDA0EB0900F1
:1021A000022800F292802B68DB05F5D5002F40F065
:1021B000FB80804AD4F89810D2F8903013F4407322
:1021C00028D08B4226D0D2F89000D2F8903043F439
:1021D0008033C2F89030D2F8903020F4407523F468
:1021E0008033C007C2F89030C2F8905012D515461F
:1021F000FEF79AFD41F28839824605E0FEF794FD2C
:10220000A0EB0A00484560D8D5F890309907F5D57D
:10221000D4F89810674AD2F8903023F440730B43F7
:10222000C2F89030B8F1000F04D0624A936D23F0E9
:1022300080539365236879E69A6D42F080529A65DF
:102240009B6D03F080530193019B4FF0010896E7CB
:10225000D368304643F48013D36002B0BDE8F08702
:10226000B0F1806F7FF416AF0121201DFFF702FD52
:102270002368074600283FF40DAF06460AE74D4D98
:102280002B6823F080532B60FEF74EFD804605E05F
:10229000FEF74AFDA0EB0800022873D82B689900CE
:1022A000F6D4002F7BD1D5F89C30D4F88C2023F4C1
:1022B00040331343C5F89C30022104F12000FFF79E
:1022C00061FD002872D1236822E703263746A9E77B
:1022D00041F48041C2F89C10D16841F48031D16052
:1022E000D8E6CA6842F48012CA60E6E6CA6842F4D8
:1022F0008012CA60B1E60221201DFFF7BBFC2368F3
:10230000074600283FF4E9AE0646E6E6012104F15F
:102310002000FFF737FD002844D00646236807E772
:102320002448C26842F48032C260CFE52149CA68BD
:10233000374642F48032CA60002F3FF4EBAD3E4690
:1023400014E70430FFF796FC0646BCE5201DFFF7B6
:1023500091FC23680746DAE50121201DFFF78AFC7E
:102360002368074600283FF478AE064675E601214B
:10237000201DFFF77FFC2368074600283FF49DAE31
:1023800006469AE623680326C2E63746BFE560297B
:102390003FF49CAD80293FF499AD01269FE53E4670
:1023A0002368B5E62368C3E63E463BE70646236856
:1023B000AEE600BF00100240624B634A0260D9687B
:1023C00001F0030141601A69C2F303120132826015
:1023D0001A69C2F30622C2601A69520B02F0100297
:1023E000073202611A69C2F341520132520042615E
:1023F0001A690162C2F341620132520082615A6974
:10240000C2F30312013242625A69C2F306228262A7
:102410005A69520B02F010020732C2625A69C2F3C3
:1024200041520132520002635A69C2F341620132E1
:1024300052004263D3F8882002F00302C263D3F84B
:10244000882002F00C020264D3F8882002F03002E7
:102450004264D3F8882002F0C0028264D3F8882056
:1024600002F44072C264D3F8882002F4406202652C
:10247000D3F8882002F440524265D3F8882002F451
:1024800040428265D3F8882002F44032C265D3F816
:102490009C2002F003020266D3F8882002F4402256
:1024A0004266D3F8882002F440128266D3F89C205A
:1024B00002F0E002C266D3F89C2002F4E0620267F8
:1024C000D3F8902002F44072C0F89820D3F8882006
:1024D00002F040624267D3F89C20520458BFD3F800
:1024E0008820184B54BF02F040624FF4804282674C
:1024F000D3F8882002F04062C267D3F8882002F047
:102500004052C0F88020D3F89C2002F00402C0F8AA
:102510008420D3F89C2002F01802C0F88820D3F859
:102520009C2002F44032C0F88C20D3F89C2002F4A6
:102530008052C0F89020D3F89C3003F44013C0F8C8
:102540009430704700100240FF7FFF01B0F5003F5C
:10255000C04A2ED0D36803F00303022B5ED0032BB6
:1025600000F0B380012B00F09C800021B0F5806F5B
:1025700000F0B2802ED8102800F0DC8155D98028D8
:1025800000F0CB8100F2DF80202800F0518140284C
:102590001ED1B04BD3F8883003F44053B3F5805FBD
:1025A00000F0E081B3F5005F00F0838183B9FFF7AD
:1025B00003BAD2F8903003F44073B3F5007F00F013
:1025C000A680B3F5407F65D0B3F5807F00F096809C
:1025D00000207047B0F5803F00F0BF8110B43ED9B5
:1025E000B0F5801F00F0838140F2D080B0F5001F6D
:1025F00000F09680B0F1807F0ED1964AD2F89C30E0
:1026000003F44013B3F5801F00F0D481B3F5001F2D
:1026100000F01C82002B3AD00020E4E013688E49C1
:1026200013F4806F08BF0021A0E7022800F09C810E
:1026300040F24781042800F0EC800828C8D1854B7F
:10264000D3F8883003F0C003402B00F08B81ADD964
:10265000802B00F02E81C02B00F08E80B8E7B0F503
:10266000805F6DD040F23E81B0F5005F00F0FC80ED
:10267000B0F5804FD0D1774AD2F8883003F040537C
:10268000B3F1805F00F0BF81B3F1405FC4D110BCF3
:10269000FEF72ABD1368714813F4003F08BF0020FD
:1026A0007047116811F002013FF460AF13681B0717
:1026B0004CBF1368D2F89430694A4CBFC3F303137C
:1026C000C3F3032352F8231050E71368654913F44A
:1026D000003F08BF002149E75E4AD2F8883003F482
:1026E0004013B3F5801F12D07FF660AFB3F5001F23
:1026F00000F08880B3F5401F7FF46AAFD2F89030C5
:1027000013F0020F0CBF00204FF400407047D2F8C6
:10271000943013F0020F0CBF00204FF4FA407047C2
:102720004C4AD2F89C3003F01803082B00F0EB80E1
:10273000102B00F03F81002B7FF46EAF4FF4006050
:1027400010BCFFF707BAB0F5807F4ED0B0F5007F20
:102750007FF43EAF3F4AD2F8883003F44023B3F50C
:10276000802FD4D07FF622AFB3F5002F00F0A180E8
:10277000B3F5402F7FF42CAF364BD3F8903013F0E5
:10278000020F0CBF00204FF400407047B0F5802FBF
:102790006AD0B0F5002F7FF43FAF2E4BD3F89C20CA
:1027A000500440F117811B689A017FF535AF294A23
:1027B000D06810F4803016D0D068D368D468C0F3E5
:1027C0000620C3F30313E40E01FB00F003F1010341
:1027D000B0FBF3F005D1D36813F4003F14BF11240C
:1027E0000724B0FBF4F010BC70471A4AD2F88830C6
:1027F00003F44033B3F5803F00F0B480B3F5003FFD
:102800007FF4D4AE1368144813F4806F08BF00201F
:102810007047104BD3F8883003F03003102B00F0D2
:10282000A1807FF6C3AE202B43D0302BA4D0CFE6BF
:10283000084BD3F8883003F44063B3F5806F00F0A1
:1028400091807FF6B3AEB3F5006F32D0B3F5406F31
:1028500092D0BDE6001002400024F400C2EB0B0051
:10286000C09A080840787D01AB4AD2F8880000F091
:102870004060B0F1806F00F0228140F2DC80B0F166
:10288000006F00F00081B0F1406F7FF4C5AE1068BA
:1028900010F00200A7D013681B074BBF1368D2F8D3
:1028A0009430C3F30313C3F303239C4A52F8230069
:1028B00099E7994B9A481B6813F4806F08BF002072
:1028C000704701287FF484AE934AD2F8883003F031
:1028D0000303022B96D0032B3FF410AF012B41D002
:1028E000FFF77CB8B0F5006F3FF42AAF94E68A4A50
:1028F000D2F89C3003F00303012B3FF4C8AE09D398
:10290000022B7FF489AE1368854813F4806F08BFEB
:10291000002068E710BCFFF74FB87F4AD2F8883034
:1029200003F44043B3F5804F1CD0B3F5004F7FF460
:102930003DAE67E7784AD2F8883003F44073B3F5C8
:10294000807F0FD07FF632AEB3F5007F3FF45AAFF1
:10295000B3F5407F3FF4D2AE3AE66F4BD3F89C30EC
:102960005807BDD5FEF7C0BB6B4BD3F8883003F0DA
:102970000C030C2B3FF62CAE01A252F823F000BF43
:10298000AF250008D1250008D1250008D125000871
:1029900065290008D1250008D1250008D1250008A7
:1029A000B3280008D1250008D1250008D12500084A
:1029B00079270008136899077FF52EAE564B1A68E1
:1029C00012074BBF1B68D3F89430C3F30313C3F350
:1029D00003236AE7D3F8880000F04060B0F1806F0D
:1029E00000F0878079D9B0F1006F00F08D80B0F1F0
:1029F000406F7FF411AE484A136813F002037FF46E
:102A00004AAF1846EFE61369DC017FF505AE424A8E
:102A1000136914691269C2F34162C3F30623C4F354
:102A20000314013201FB03F0611C5300B0FBF1F011
:102A3000B0FBF3F0D7E600287FF4EEADD2F8982093
:102A4000384B12F0020F18BF1846CCE6324A106815
:102A500010F000703FF4C7AED36813F48013D0D0E9
:102A6000D468D068D368C3F34153C0F30312C4F3EE
:102A70000624013301FB04F001325B00B0FBF2F0ED
:102A8000B0FBF3F0AFE6106810F000703FF4ABAEAF
:102A9000D36813F48013B4D0D068D468D368C3F378
:102AA0004153C0F30620C4F30312013301FB00F0CD
:102AB00001325B00B0FBF2F0B0FBF3F093E610687C
:102AC00010F000603FF48FAE136913F480133FF4ED
:102AD000A3AD106914691369E1E700287FF49CAD88
:102AE0000D4A104BD2F8982012F0020F18BF18466A
:102AF00079E6094A136813F0006382D0136913F46E
:102B00008013E6D118466EE6034A136813F000738B
:102B1000BED1184667E600BF00100240C09A080800
:102B20000024F400006CDC0270B5214C236823F013
:102B3000806323600646FEF7F7F8054604E0FEF7DB
:102B4000F3F8401B022831D823681A01F7D4D6E9DC
:102B500002032269174D7168DB06154043EA002322
:102B6000D6E904022B430139400843EA0113013836
:102B7000520843EA4053013A43EA4263236123691E
:102B8000B2690B4D13432361236843F080632360D4
:102B9000FEF7CAF8044604E0FEF7C6F8001B022858
:102BA00004D82B681B01F7D5002070BD032070BD31
:102BB000001002400F809D0138B5124C236823F0AD
:102BC00080632360FEF7B0F8054604E0FEF7ACF83A
:102BD000401B022813D8206810F00060F6D1094A83
:102BE000136923F0887323F480331361136813F09F
:102BF000085F03D1D36823F00303D36038BD0320FB
:102C0000EDE700BF0010024070B5214C236823F0AF
:102C1000805323600646FEF787F8054604E0FEF77A
:102C200083F8401B022831D823689A00F7D4D6E9EC
:102C300002036269174D7168DB06154043EA002301
:102C4000D6E904022B430139400843EA0113013855
:102C5000520843EA4053013A43EA426363616369BD
:102C6000B2690B4D13436361236843F080532360C3
:102C7000FEF75AF8044604E0FEF756F8001B022857
:102C800004D82B689B00F7D5002070BD032070BDD1
:102C9000001002400F809D0138B5124C236823F0CC
:102CA00080532360FEF740F8054604E0FEF73CF849
:102CB000401B022813D8206810F00050F6D1094AB2
:102CC000536923F0887323F480335361136813F03E
:102CD000206F03D1D36823F00303D36038BD0320F2
:102CE000EDE700BF00100240034A936823F400435D
:102CF00018439060704700BF00100240044AD2F8A9
:102D0000943023F4706343EA0010C2F894007047D3
:102D100000100240034AD2F8903043F02003C2F87A
:102D20009030704700100240054BD3F8902022F0FD
:102D30002002C3F890209A6922F400729A617047C9
:102D4000001002400A4A0B4BD2F8901041F02001CB
:102D5000C2F89010916941F4007191611A6842F4CF
:102D600000221A609A6842F400229A60704700BFFD
:102D70000010024000040140704700BF10B5054C30
:102D8000E3699B0500D410BDFFF7F6FF4FF4007315
:102D9000236210BD0010024070B5254CE36C43F077
:102DA0000103E364E36C88B003F0010301930421A1
:102DB000032202230391054600260198049203A9E9
:102DC0004FF09040CDE9056300F0C0FAA36DDA0042
:102DD00009D4A36D43F08053A365A36D03F0805322
:102DE0000293029B0126134B1B68DB0511D5104B88
:102DF000D3F8900020F0407040F080702843C3F872
:102E0000900026B10A4A936D23F08053936508B071
:102E100070BD00F091FC064BD3F8900020F040709C
:102E200040F080702843C3F8900000F08DFCE8E784
:102E3000001002400070004010B51A4B9A6DD2008D
:102E400082B01DD49A6D42F080529A659B6D03F05A
:102E500080530193019B144B1B68DB054FF0010469
:102E600014D5104AD2F8903023F08073C2F8903015
:102E700024B10C4A936D23F08053936502B010BDCA
:102E8000094B1B68DB054FF00004EAD400F054FC4A
:102E9000044AD2F8903023F08073C2F8903000F0EA
:102EA00053FCE5E70010024000700040024A13683E
:102EB00043F004031360704700100240024A136895
:102EC00023F004031360704700100240114B124AB4
:102ED000996B41F0807130B49963996B21F08071E6
:102EE0009963D0E90035D0E902142B430B43016903
:102EF000234343EA014353601368416923F47C533D
:102F000043EA01231360136843F06003136030BC8D
:102F1000704700BF0010024000600040024A136882
:102F200043F080031360704700600040074B5A680D
:102F300092B202601A68C2F3052242609A68120CCB
:102F400082609B6803F40043C360704700600040E8
:102F50002DE9F0418046FDF7E7FE224C01260746A9
:102F60000225B8F1FF3F34D0FDF7DEFEC01B40451F
:102F700002D8B8F1000F2CD10120A368DB0748BFAD
:102F8000E660A36848BF40F00200990748BFE560CB
:102F9000A36848BF40F004005A0503D5042340F05D
:102FA0002000E360A368DB0503D5042340F008009C
:102FB000E360A36899050ED50423E360A3681A07AC
:102FC00040F0100003D50823E3600028C9D0BDE815
:102FD000F0810020D1E7A3681B07F4D40028C0D0FB
:102FE000F5E700BF00600040704700BF704700BFBA
:102FF000704700BF704700BF1D4A08B5936811684D
:1030000013F0010F02D011F0010F1FD19A0701D563
:103010008A0720D41A0701D50A0722D45A0714D5E3
:10302000490712D513F4807F0CBF002008209A05B1
:1030300048BF40F010005B050D4B4FF0040248BF45
:1030400040F02000DA60FFF7D5FF08BD0123D36010
:10305000FFF7CAFF08BD064B0222DA60FFF7C6FF82
:1030600008BD034B0822DA60FFF7C2FF08BD00BFAE
:1030700000600040074AD3684FF6FF010B40000292
:1030800043F0BF6300F4E06043F400330343D360D4
:10309000704700BF00ED00E0184BDB68C3F302236C
:1030A00030B4C3F10705042D03F1040428BF04253F
:1030B000062C19D9033B4FF0FF349C4022EA04044C
:1030C0004FF0FF32AA4021EA020101FA03F2224343
:1030D00012010028D2B20ADB00F1604000F5614025
:1030E00080F8002330BC704700242346E8E7044BF7
:1030F00000F00F0003441A7630BC704700ED00E08A
:10310000FCEC00E0002807DB00F01F010123400970
:10311000024A8B4042F82030704700BF00E100E0D7
:1031200000280DDB430920330122064900F01F006F
:1031300002FA00F041F82300BFF34F8FBFF36F8F07
:10314000704700BF00E100E0BFF34F8F0549064B19
:10315000CA6802F4E0621343CB60BFF34F8F00BF35
:10316000FDE700BF00ED00E00400FA050138B0F112
:10317000807F0DD2074B10B4074C5860F02084F8C4
:1031800023000022072110469A60196010BC704786
:103190000120704710E000E000ED00E0024BD8682D
:1031A000C0F30220704700BF00ED00E0002830B4FB
:1031B00023DB00F1604000F5614090F80003000956
:1031C00001F00701C1F10705042D01F1040428BF36
:1031D0000425062C0FD903394FF0FF348C4020EA28
:1031E0000404C8404FF0FF31A94020EA01001060FC
:1031F0001C6030BC70470024F4E7034C00F00F0063
:103200000444207E0009DBE7FCEC00E0002809DB39
:103210004309403300F01F000122034902FA00F085
:1032200041F82300704700BF00E100E000280BDBFD
:103230004309064A403300F01F0052F8233023FAB6
:1032400000F000F0010070470020704700E100E04E
:10325000002809DB4309603300F01F000122034905
:1032600002FA00F041F82300704700BF00E100E0DF
:1032700000280BDB4309064A803300F01F0052F898
:10328000233023FA00F000F001007047002070475F
:1032900000E100E0044A136804280CBF43F0040373
:1032A00023F004031360704710E000E0704700BF94
:1032B00008B5FFF7FBFF08BDBFF35F8F044A054960
:1032C000536A002023F4803353624860704700BF84
:1032D00000ED00E090ED00E0064B074A40F00100F1
:1032E0005860536A43F480335362BFF34F8FBFF388
:1032F0006F8F704790ED00E000ED00E0124A4378D8
:103300009360017811B9D16011617047436870B45E
:10331000D360C37A057B847A867B1B0643EA0573F8
:103320000B43417BC57B43EAC44343EA8143447A70
:10333000017A43EA464343EA054343EA042343EA66
:103340004103136170BC704790ED00E0D1F800C0FC
:10335000BCF1000F00F0D7802DE9F04FDFF8E491C9
:10336000DFF8E4E183B0884600250123AB4013EA8F
:103370000C067DD0D8F8041021F0100ABAF1020F23
:103380007ED06F000322D0F800B0BA40D24301F0E3
:10339000030402EA0B0BBC400AF1FF3A44EA0B04B7
:1033A000BAF1010F046040F28C80C468D8F808308C
:1033B0002240BB401343CF00C36059D5D9F86030D9
:1033C00043F00103C9F86030D9F8603025F00302FA
:1033D00002F1804203F0010302F58032019305F00F
:1033E0000304019B9768A4000F23A340B0F1904F02
:1033F00027EA03031AD04C4FB8427AD04B4FB84259
:1034000072D04B4FB8427FD04A4FB84200F0818013
:10341000494FB84272D0494FB8427FD0484FB84266
:103420000CBF0727082707FA04F423439360DEF84C
:103430000030F243CC0354BF13403343CEF8003086
:10344000DEF804308F0354BF13403343CEF804300A
:10345000DEF80830CC0254BF13403343CEF80830B6
:10346000DEF80C30890254BF13403343CEF80C30E1
:1034700001353CFA05F37FF478AF03B0BDE8F08F77
:10348000EF0800EB870705F007043A6AA4004FF045
:103490000F0B0BFA04FB22EA0B0AD8F81020A2400B
:1034A00042EA0A023A626F000322D0F800A0BA4052
:1034B000D24301F003040AEA020ABC4044EA0A04C7
:1034C0000460846804EA020AD8F80C40BC4044EA6C
:1034D0000A048460D0F804A0C1F300142AEA0303AC
:1034E000AC401C43446060E7022707FA04F423431E
:1034F0009CE7012707FA04F4234397E7052707FA17
:1035000004F4234392E77047032707FA04F42343A4
:103510008CE7042707FA04F4234387E7062707FA12
:1035200004F4234382E700BF000400480008004879
:10353000000C004800100048001400480018004823
:10354000001C00480010024000040140002900F067
:1035500096802DE9F04FDFF85081DFF850A1DFF8B9
:1035600050B183B000234FF0010909FA03F414EAC3
:1035700001066BD023F0030505F1804505F5803584
:1035800003F00302AF6892004FF00F0C0CFA02FC3C
:103590000CEA0707B0F1904F019719D050455CD065
:1035A000584562D03B4FB84264D03B4FB84257D0E9
:1035B0003A4FB84264D03A4FB84266D0394FB84219
:1035C00014BF4FF0080E4FF0070E0EFA02F200E0A3
:1035D0000022019F974218D1D8F80020F6433240CC
:1035E000C8F80020D8F804203240C8F80420D8F8E1
:1035F00008203240C8F80820D8F80C201640C8F837
:103600000C60AA6822EA0C02AA60056803265A0028
:1036100006FA02F223FA06F6154300EB8606056069
:1036200003F00705376AAD004FF00F0C0CFA05F5F3
:1036300027EA050535628568D243154085604568EF
:1036400025EA04044460C4682240C260013331FAB0
:1036500003F28AD103B0BDE8F08F09FA02F2B8E7AD
:103660004FF0040E0EFA02F2B3E74FF0020E0EFA1C
:1036700002F2AEE74FF0030E0EFA02F2A9E770472E
:103680004FF0050E0EFA02F2A3E74FF0060E0EFA07
:1036900002F29EE7000C00480010004800140048A9
:1036A00000180048001C00480004014000040048C5
:1036B000000800480369194214BF01200020704728
:1036C0000AB9816270478161704700BF43690B424C
:1036D00014BF81628161704782B04FF480330193DF
:1036E000019B0B430193019BC361C161019BC361BA
:1036F000C3690193C06980F48030C0F3004002B018
:10370000704700BF704700BF044A5169014200D1B1
:10371000704708B55061FFF7F5FF08BD0004014090
:10372000044B9A6B42F080529A639A6B22F080525B
:103730009A63704700100240024A136843F4807392
:103740001360704700700040024A136823F48073CE
:1037500013607047007000401B491C4B4A6810B44E
:10376000046822F00E0222434A605A6822F4803232
:103770005A601A6822F480321A60DA6822F48032C1
:10378000DA609A6822F480329A604268D40303D5E2
:10379000196841F480311960900304D50B494B68D6
:1037A00043F480334B60D10704D508498B6843F458
:1037B00080338B60930704D5044AD36843F4803385
:1037C000D360002010BC704700700040000401402E
:1037D000024A536843F00103536070470070004091
:1037E000024A536823F001035360704700700040A1
:1037F000064AD36800F01F0123EA010343EA501090
:10380000D060936819439160704700BF007000401A
:10381000034A936800F01F0023EA00039360704797
:10382000007000400E4B10B55B690C4660B99A05FC
:1038300011D40C4A1369012C23F00403136108D03E
:1038400040BF20BF20BF10BD9B05F2D400F0ECFBB1
:10385000EFE730BF10BD00F0EFFB0028E9D010BD4E
:103860000070004000ED00E0B0F5804F084601D048
:1038700000F00CBC00F026BC0649074A0B6823F098
:10388000070343F003030B60136943F00403136160
:1038900030BF70470070004000ED00E0024A13693D
:1038A00043F002031361704700ED00E0024A136920
:1038B00023F002031361704700ED00E0024A136930
:1038C00043F010031361704700ED00E0024A1369F2
:1038D00023F010031361704700ED00E0704700BF54
:1038E000074B186800F4C060B0F5806F07D0D3F8BC
:1038F000803013F4807F14BF4FF4007000207047B5
:1039000000700040394A10B4136860B903F4C06312
:10391000B3F5806F12D0D2F8803010BC23F48073DE
:10392000C2F880307047B0F5007F2ED023F4C0631A
:1039300043F480631360002010BC7047D2F88010FD
:103940002B4B2C4821F48071C2F88010116821F4AF
:10395000C06141F4007111601C685169322303FB9E
:1039600004F3A0FB03039B0C480503F1010306D5F8
:1039700000E023B15169490503F1FF33F9D41B4B32
:103980005B695C05D7D50320D6E703F4C063B3F5C4
:10399000806F08D0D2F8803010BC43F480730020D0
:1039A000C2F880307047D2F88010114B114841F4B2
:1039B0008071C2F88010116821F4C06141F4007177
:1039C00011601C685169322303FB04F3A0FB03035D
:1039D0009B0C480503F10103D1D501E0002BCED0AB
:1039E0005169490503F1FF33C9D5F7E7007000407D
:1039F0000400002083DE1B43054AD36823F40073D0
:103A00001843D060D36843F48073D360704700BF1D
:103A100000700040024AD36823F48073D36070477B
:103A200000700040024A536843F48063536070475B
:103A300000700040024A536823F48063536070476B
:103A400000700040024A536843F4007353607047AB
:103A500000700040024A536823F4007353607047BB
:103A600000700040024A936843F40043936070473B
:103A700000700040024A936823F40043936070474B
:103A800000700040082869D8DFE800F0111F2B35CE
:103A90003F49535D0500324B1A6EC1F30B010A43D7
:103AA0001A665A6E22EA01015966002070472C4BB3
:103AB000186A21F4804202431A625A6A21F42041B2
:103AC00022EA0101596200207047254B9A6A0A4395
:103AD0009A62DA6A21F0100122EA0101D96200201B
:103AE00070471F4B1A6B0A431A635A6B22EA010193
:103AF0005963002070471A4B9A6B0A439A63DA6B3A
:103B000022EA0101D96300207047154B1A6C0A4361
:103B10001A645A6C22EA0101596400207047104B64
:103B20009A6C0A439A64DA6C22EA0101D964002093
:103B300070470B4B1A6D0A431A655A6D22EA010150
:103B4000596500207047064B9A6D89B20A439A6501
:103B5000DA6D22EA0101D965002070470120704723
:103B60000070004008284AD8DFE800F00E171E2534
:103B70002C333A410500234A136EC1F30B0123EAAB
:103B800001011166002070471E4A136A21F480412A
:103B900023EA01011162002070471A4A936A23EA5E
:103BA0000101916200207047164A136B23EA01015C
:103BB000116300207047134A936B23EA010191635C
:103BC000002070470F4A136C23EA010111640020A2
:103BD00070470C4A936C23EA0101916400207047FE
:103BE000084A136D23EA0101116500207047054A58
:103BF000936D89B223EA010191650020704701208D
:103C0000704700BF00700040082869D8DFE800F066
:103C1000111F2B353F49535D0500324B5A6EC1F3DE
:103C20000B010A435A661A6E22EA01011966002046
:103C300070472C4B586A21F4204202435A621A6A98
:103C400021F4804122EA0101196200207047254BCE
:103C5000D86A21F010020243DA629A6A22EA01016C
:103C60009962002070471F4B5A6B0A435A631A6BC4
:103C700022EA01011963002070471A4BDA6B0A43EC
:103C8000DA639A6B22EA0101996300207047154BB1
:103C90005A6C0A435A641A6C22EA01011964002022
:103CA0007047104BDA6C0A43DA649A6C22EA01011D
:103CB0009964002070470B4B5A6D0A435A651A6D80
:103CC00022EA0101196500207047064BDA6D89B2BE
:103CD0000A43DA659A6D22EA01019965002070476E
:103CE000012070470070004008284CD8DFE800F041
:103CF0000E1720272E353C430500244A536EC1F38E
:103D00000B0123EA01015166002070471F4A536AE4
:103D100021F4204123EA01015162002070471B4A2F
:103D2000D36A21F0100123EA0101D162002070471B
:103D3000164A536B23EA0101516300207047134A6E
:103D4000D36B23EA0101D163002070470F4A536C03
:103D500023EA01015164002070470C4AD36C23EA26
:103D60000101D16400207047084A536D23EA010124
:103D7000516500207047054AD36D89B223EA0101DD
:103D8000D165002070470120704700BF00700040DF
:103D9000024A936843F48063936070470070004068
:103DA000024A936823F48063936070470070004078
:103DB000024A936843F48073936070470070004038
:103DC000024A936823F48073936070470070004048
:103DD000024A136843F010031360704700700040FC
:103DE000024A136823F0100313607047007000400C
:103DF000024A936843F48053936070470070004018
:103E0000024A936823F48053936070470070004027
:103E1000024A536843F0100353607047007000403B
:103E2000024A536823F0100353607047007000404B
:103E3000024A536843F0200353607047007000400B
:103E4000024A536823F0200353607047007000401B
:103E5000024A536843F040035360704700700040CB
:103E6000024A536823F040035360704700700040DB
:103E7000024A536843F0800353607047007000406B
:103E8000024A536823F0800353607047007000407B
:103E90000368202B00F0978062D9402B31D0802B13
:103EA00040F08F805F4B5A6A22F040025A621A6AD1
:103EB00022F040021A62DA6A22F04002DA629A6A5A
:103EC00022F040029A624268D10303D5196A41F098
:103ED00040011962900304D552494B6A43F04003F4
:103EE0004B62D10704D54F498B6A43F040038B6284
:103EF000930764D54B4AD36A43F04003D362002052
:103F00007047484B5A6A22F020025A621A6A22F01D
:103F100020021A62DA6A22F02002DA629A6A22F039
:103F200020029A624268D00303D5196A41F0200149
:103F30001962910304D53B494B6A43F020034B625D
:103F4000D30704D537498B6A43F020038B6290076F
:103F500035D5344AD36A43F02003D362002070473A
:103F6000102B2ED12F4B5A6A22F008025A621A6A7D
:103F700022F008021A62DA6A22F00802DA629A6A09
:103F800022F008029A624268D00303D5196A41F010
:103F900008011962910304D522494B6A43F00803D2
:103FA0004B62D30704D51F498B6A43F008038B6229
:103FB000900741BF1B4AD36A43F00803D362002035
:103FC000704701207047174B5A6A22F010025A625C
:103FD0001A6A22F010021A62DA6A22F01002DA6219
:103FE0009A6A22F010029A624268D10303D5196AD4
:103FF00041F010011962900304D50A494B6A43F05D
:1040000010034B62D10704D506498B6A43F01003B5
:104010008B629307D3D5034AD36A43F01003D3626C
:104020000020704700040140024A136843F48043B3
:1040300013607047007000401149124B0A68124823
:1040400022F4804210B40A601C684A69322303FBE0
:1040500004F3A0FB0303900508D59B0C013300E09B
:1040600023B14A69920503F1FF33F9D4044B10BC24
:104070005B6913F4007F14BF03200020704700BF6A
:10408000007000400400002083DE1B430B490C4AF3
:104090000B6823F007030B601369012843F0040346
:1040A000136108D040BF20BF20BF054A136923F029
:1040B00004031361704730BFF7E700BF0070004092
:1040C00000ED00E00C490D4A0B6823F0070343F0B4
:1040D00001030B601369012843F00403136108D046
:1040E00040BF20BF20BF054A136923F004031361BA
:1040F000704730BFF7E700BF0070004000ED00E000
:104100000C490D4A0B6823F0070343F002030B60D0
:104110001369012843F00403136108D040BF20BF96
:1041200020BF054A136923F004031361704730BFB1
:10413000F7E700BF0070004000ED00E00649074AC5
:104140000B6823F0070343F004030B60136943F08B
:104150000403136130BF70470070004000ED00E0C1
:10416000704700BF704700BF704700BF704700BF77
:1041700010B5174C6369DB0324D4154C636B180727
:104180001BD4134C636BD90612D4114C636B9A0683
:1041900009D40F4C636B5B0600D410BDFFF7E6FF3C
:1041A0004023636310BDFFF7DFFF20236363F0E765
:1041B000FFF7D8FF10236363E7E7FFF7D1FF08237A
:1041C0006363DEE7FFF78AFB4FF480336361D4E774
:1041D0000004014000000000D0F88030212B00D006
:1041E0007047B0F8563002689BB26BB1016D31F880
:1041F000023BC3F308031385B0F856300165013B59
:104200009BB2A0F856307047136823F08003136008
:10421000136843F040031360704700BFD0F880304C
:10422000212B00D07047B0F86A30002BFAD0B0F8DC
:10423000562092B210B40468C2B1E269013B12F098
:10424000800F9BB20CD0016D31F8022BC2F3080233
:104250002285B0F856200165013A92B2A0F85620A6
:1042600063B1B0F8562092B2002AE6D1A36823F4D5
:104270000003A360236843F04003236010BC704731
:10428000D0F88030212B00D07047B0F8563002684B
:104290009BB25BB1016D11F8013B1385B0F856304C
:1042A0000165013B9BB2A0F856307047136823F0BC
:1042B00080031360136843F040031360704700BF2E
:1042C000D0F88030212B00D07047B0F86A30002B36
:1042D000FAD0B0F8562092B210B40468B2B1E269D4
:1042E000013B12F0800F9BB20AD0016D11F8012B37
:1042F0002285B0F856200165013A92B2A0F8562006
:1043000063B1B0F8562092B2002AE8D1A36823F432
:104310000003A360236843F04003236010BC704790
:10432000704700BF704700BFC8B138B5242203688A
:10433000C0F880201A680025044622F001021A60A5
:104340001D605D609D60FCF7B7F9C4F8885084F883
:104350007C50C4F880502846C4F8845038BD0120F1
:10436000704700BFD0F88030202B2AD159B352B308
:1043700090F87C30012B24D030B4446E01650023CA
:1043800001252121B4F1005FA0F856200367C0F891
:104390008830A0F8542080F87C50C0F880108368E2
:1043A00013D0B3F5805F25D0154B036701680A6809
:1043B000002342F0800280F87C3018460A6030BC4E
:1043C00070470220704701207047B3F5805F0BD023
:1043D0000C4B036701688A68002342F4000280F8EE
:1043E0007C3018468A60EAE70369002BF0D1064B5F
:1043F0000367EFE70369002BD6D1044B0367D5E7CA
:1044000081420008C14200081D420008D94100084D
:10441000D0F88430202B2ED179B372B390F87C3051
:10442000012B28D0836830B4B3F5805F81654FF0ED
:1044300000044FF0010180F87C10A0F85C20A0F887
:104440005E20C4660168456E19D0002B3CD103691B
:10445000002B69D07F23A0F8603022230024C0F80D
:104460008840C0F884308B68B5F1005F43F00103E9
:104470008B603AD115E00220704701207047036934
:10448000002B3ED02223C0F88840C0F884308B68CF
:10449000FF2443F00103B5F1005FA0F860408B609A
:1044A00023D1B0F8683093421FD8284BC3660A68FE
:1044B000002342F4807280F87C300A608A6842F0FF
:1044C000805218468A601AE0B3F1805F30D0222310
:1044D000C0F88840C0F884308B68A0F8604043F092
:1044E0000103B5F1005F8B60DBD0194BC3660A682E
:1044F000002342F4907280F87C3018460A6030BC89
:1045000070472224C0F88830C0F884408B6840F29D
:10451000FF1443F00103B5F1005FA0F860408B6029
:104520000DD00C4BC366E2E7FF23A0F8603094E7A0
:104530000369002B8ED03F23A0F860308DE7B0F8E0
:1045400068309342EDD8044BC366B0E7954A000843
:10455000D9490008394A00084D4B00082DE9F041BF
:10456000D0F88060202E32D1A1B39AB390F87C406D
:10457000012C2CD00546406FA5F8562013464FF06D
:10458000000821220124C5F888802965C5F880200B
:10459000A5F8543085F87C402A6868B1134FDFF8DD
:1045A00054C0C762124FC0F838802832C0E90CC727
:1045B00002F068F988B92A684023136293680020E2
:1045C00043F0800385F87C009360BDE8F081022011
:1045D000BDE8F0810120BDE8F0811023C5F88830E6
:1045E00085F87C802046C5F88060F1E7994900088D
:1045F0004D4C0008C94900082DE9F041D0F884600D
:10460000202E3CD100293DD0002A3BD090F87C30B0
:10461000012B34D00546806F2F68A96513464FF0F3
:10462000000801242222C5F88880A5F85C3085F8AE
:104630007C40C5F8842088B1DFF864C0DFF864E00E
:10464000C0F838800A4607F12401144FC0F82CE066
:10465000C0E90CC702F016F9B8B92F683B68002012
:1046600043F4807385F87C003B60BB6843F0010332
:10467000BB60BB6843F04003BB60BDE8F081022033
:10468000BDE8F0810120BDE8F0811023C5F8883035
:1046900085F87C802046C5F88060F1E74D4C000825
:1046A0003D4C0008014C000890F87C30012B30B4E0
:1046B000D0F88050D0F8844028D003689A6801214F
:1046C00080F87C10110601D5212D17D09A6852066A
:1046D00005D4002380F87C3030BC18467047222C6B
:1046E000F7D11A6822F480721A609A6822F00102E7
:1046F0009A609A6822F040029A60EAE79A6822F08B
:1047000080029A609A685206E3D5E8E7022030BC3E
:10471000704700BF90F87C30012B23D0D0F8803058
:104720000122212B80F87C2004D10268936843F099
:1047300080039360D0F88430222B0ED103680822C6
:104740001A621A6842F480721A609A6842F0010292
:104750009A609A6842F040029A60002380F87C30A8
:10476000184670470220704738B50368D0F88010AB
:10477000D0F884509A681206044601D5212922D027
:10478000986810F0400002D0222D01D0002038BDE2
:104790009A68A06F22F040029A6018B102F0CEF839
:1047A00038BB23681A6822F490721A609A6822F063
:1047B0008052002122F0010220259A600846C4F8A8
:1047C0008450E16638BD9A68406F22F080029A609A
:1047D00018B102F0B3F8B0B923681A6822F0C00229
:1047E0001A609A68202122F400029A60C4F88010AE
:1047F000C6E7A06F02F040FA2028D2D11023C4F8F7
:104800008830032038BD606F02F036FA2028E3D1EB
:10481000F4E700BF38B503681A6822F4F0721A6032
:104820009A6822F0845222F001029A609A68110676
:1048300004460BD59A68406F22F080029A6028B136
:104840000023836302F07AF860BB23689A685206FB
:104850000BD59A68A06F22F040029A6028B100231D
:10486000836302F06BF838BB2368616E00220F206F
:10487000B1F1005FA4F85620A4F85E20186203D1BD
:104880001A8B42F010021A831A8B2025002142F065
:1048900008021A830846C4F88050C4F88450C4F84B
:1048A000881038BD606F02F0E7F92028CDD11023C1
:1048B000C4F88830032038BDA06F02F0DDF920284D
:1048C000D2D1F4E703681A6822F0C00210B51A606A
:1048D0009A6822F400029A609A68120604460AD581
:1048E0009A68406F22F080029A6020B100238363AF
:1048F00002F024F880B9636E0022B3F1005FA4F8DF
:10490000562004D12268138B43F010031383202315
:10491000C4F88030002010BD606F02F0ADF920288F
:10492000E9D11023C4F88830032010BD03681A6849
:1049300022F4907210B51A609A6822F0805222F028
:1049400001029A609A68520604460BD59A68806FF5
:1049500022F040029A6028B10023836301F0EEFF49
:1049600068B9236800200F22A4F85E001A621A8B2F
:10497000202142F008021A83C4F8841010BDA06FF1
:1049800002F07AF92028ECD11023C4F888300320F3
:1049900010BD00BF704700BF08B50368806A1B6880
:1049A00013F020030BD10268A0F85630936823F06F
:1049B00080039360136843F04003136008BDFFF762
:1049C000E9FF08BD704700BF08B5806AFFF7FAFF2E
:1049D00008BD00BF704700BFD0F8841002682229CC
:1049E00038B504D0138B43F00803138338BD928C81
:1049F00090F86040816D22400A70B0F85E20816DB1
:104A0000013A92B2A0F85E20B0F85E20013192B275
:104A10008165002AEAD101680C6824F490740C6066
:104A20008C68202524F001048C60C266C0F8845094
:104A30005BF05CF938BD00BFD0F884100268222911
:104A400038B504D0138B43F00803138338BD918C21
:104A5000B0F86050846D294024F8021BB0F85E1055
:104A60008465013989B2A0F85E10B0F85E1089B291
:104A70000029EBD1146824F4907414609468202504
:104A800024F001049460C166C0F884505BF02EF9F4
:104A900038BD00BFD0F88430222B05D00268138BBC
:104AA00043F00803138370472DE9F041B0F86850D4
:104AB000002D43D0044690F86080224F202602E06B
:104AC000013DADB22DB32368A26D9B8C08EA0303B0
:104AD0001370B4F85E30A26D013B9BB2A4F85E3057
:104AE000B4F85E3001329BB2A265002BE8D1226897
:104AF000116821F4807111609168013D3940916025
:104B00002046C4F88460E366ADB25BF0EFF8002D98
:104B1000D9D1B4F85E309BB273B1B4F868209A4230
:104B20000AD9236808499A6822F080529A601A6864
:104B3000E16642F020021A60BDE8F081B0F85E3014
:104B4000FAE700BFFEFFFFEFD9490008D0F8843034
:104B5000222B05D00268138B43F0080313837047A0
:104B60002DE9F041B0F86850002D41D00446B0F86E
:104B70006080214F202602E0013DADB21DB32168C7
:104B8000A26D8B8C08EA030322F8023BB4F85E3076
:104B9000A265013B9BB2A4F85E30B4F85E309BB2D4
:104BA000002BE9D10A6822F480720A608A68013D0C
:104BB0003A408A602046C4F88460E366ADB25BF098
:104BC00095F8002DDBD1B4F85E309BB273B1B4F828
:104BD00068209A420AD9236808499A6822F08052CC
:104BE0009A601A68E16642F020021A60BDE8F0811E
:104BF000B0F85E30FAE700BFFEFFFFEF394A000869
:104C000008B50368806A1B6813F0200311D102689D
:104C1000A0F85E30136823F480731360936823F068
:104C2000010393609368202123F040039360C0F850
:104C300084105BF05BF808BD704700BF08B5806A60
:104C4000FFF7FAFF08BD00BF704700BF806A036826
:104C500010B5D0F88040D0F884109A68120601D5BB
:104C6000212C1FD09A68520601D5222908D0D0F8ED
:104C7000883043F01003C0F88830FFF7E5FF10BD1F
:104C80000021A0F85E101A6822F490721A609A68E7
:104C900022F0805222F0010220249A60C166C0F8FE
:104CA0008440E4E70022A0F856201A6822F0C002EF
:104CB0001A609A68202422F400029A60C0F88040AA
:104CC000D0E700BF0368DA692DE9F0411507044613
:104CD0001868996863D06B4D0D4000F08280D7074B
:104CE00009D5C60507D501261E62D4F8886046F0AE
:104CF0000106C4F88860970702F0040640F1858039
:104D0000CF0709D502271F62D4F8887047F004073F
:104D1000C4F88870002E7CD1170705D5860600F1EF
:104D20008880002D40F08580D4F88850002D6AD00E
:104D3000950607D5800640F18980E26E12B12046C3
:104D400090472368D4F8885099684F0603D415F02B
:104D5000080500F091801A6822F490721A609A682F
:104D600022F0805222F0010220219A60C4F88410BF
:104D70009A6800215606E16664D59A68A06F22F011
:104D800040029A6000285DD03F4B836301F00CFE27
:104D9000002838D0A06FBDE8F041836B1847970614
:104DA00009D5860605D5E36E6BB32046BDE8F04114
:104DB0001847CD00F7D4D50209D4160619D5050633
:104DC00015D5236FFBB12046BDE8F04118474F02CF
:104DD000F3D54FF4801220461A62BDE8F04101F08D
:104DE00007BB10F4907FE6D0D70784D579E7090296
:104DF000E7D4570601D546062CD4150212D4D301A8
:104E000001D5002833DBBDE8F081002E84D0CE0729
:104E100082D504261E62D4F8886046F00206C4F8E3
:104E2000886079E74100EAD52046BDE8F04101F00D
:104E3000E3BA08251D62D4F8885045F00805C4F887
:104E4000885071E72046FFF7FFFEDCE7CA007FF5D8
:104E500079AF72E71A68202522F0400200211A601B
:104E60002046C4F880502167FFF794FDCBE7204629
:104E7000BDE8F04101F0BEBA2046FFF7E5FEC4F8F8
:104E80008850C0E7010000108D4E000808B5836A05
:104E90000022A3F85E201846A3F85620FFF7D4FEA0
:104EA00008BD00BF704700BF03681A6822F4F072A3
:104EB00010B50446406F1A609A6822F0845222F0BE
:104EC00001029A6028B19A6812F0800218BF2B4A3A
:104ED0008263A16F29B19A6812F0400218BF284A74
:104EE0008A639A6812060CD59A6822F080029A604A
:104EF00038B101F059FD002834D0626F23680021D9
:104F000091639A6852060CD59A68A06F22F040020D
:104F10009A6030B101F048FD10B3A26F2368002100
:104F20009163616E00220F20B1F1005FA4F856205A
:104F3000E266A4F85E202267C4F88820186203D1D4
:104F40001A8B42F010021A831A8B202142F00802B9
:104F50001A832046C4F88010C4F88410FFF7A2FF1B
:104F6000002010BD23689A685106F9D59A68A06F91
:104F700022F040029A600028CCD1F1E7C94F000826
:104F8000854F0008836AD3E91D210020886312B190
:104F9000926B02B170471A6800210F2010B5A3F878
:104FA0005610A3F85E10C3F888101062118B2024ED
:104FB00041F0080111831846C3F88040C3F88440CB
:104FC000FFF770FF10BD00BF836AD3E91D120020F8
:104FD000886312B1926B02B17047586E196810B5B0
:104FE00000220F24B0F1005FA3F85620A3F85E2042
:104FF000C3F888200C6208D02022C3F8802018460D
:10500000C3F88420FFF74EFF10BD0A8B42F0100258
:105010000A83F1E7704700BF03681A6822F0C002F4
:1050200010B51A609A6822F400029A609A6812F029
:105030008002044610D09A68416F22F080029A6084
:10504000F1B1144B8B63084601F0AEFC88B1606F80
:10505000836B9847002010BD416EA0F85620B1F137
:10506000005F026707D02023C4F880302046FFF796
:10507000D1FF002010BD1A8B42F010021A83F2E714
:105080002023A0F856100167C0F88030FFF7C2FF58
:10509000002010BD99500008806A08B5436E0022B8
:1050A000B3F1005FA0F8562004D10268138B43F0DF
:1050B000100313832023C0F88030FFF7ABFF08BD37
:1050C000704700BF38B503681A6822F490721A60FE
:1050D0009A6822F0805222F001029A609A6812F0D7
:1050E0004002044610D09A68816F22F040029A6014
:1050F000B1B1134B8B63084601F056FC10B1A06FA1
:10510000836B9847002038BD20210F25A0F85E2032
:1051100082651D62C0F88410FFF7D2FF002038BD01
:105120000F22A0F85E1081651A621A8B202142F0CE
:1051300008021A83C0F88410FFF7C2FF002038BDB0
:1051400045510008836A1A6800200F2110B5A3F8A2
:105150005E001162118B202441F008011183184672
:10516000C3F88440FFF7ACFF10BD00BF0268138B8B
:1051700043F004031383704790F87C20012A16D073
:105180000268242130B4C0F88010116821F00C01AD
:105190001160116803460024202541F008011160C8
:1051A0002046C3F8805083F87C4030BC7047022012
:1051B000704700BF90F87C20012A16D00268242195
:1051C00030B4C0F88010116821F00C011160116832
:1051D00003460024202541F0040111602046C3F855
:1051E000805083F87C4030BC70470220704700BF7D
:1051F00090F87C20012A12D003462422006810B4C3
:10520000C3F88020028B2024002142F00202028396
:105210000846C3F8804083F87C1010BC7047022019
:10522000704700BFD0F88020D0F88400104370474A
:10523000D0F88800704700BF2DE9F0480446D4E953
:105240000465A3682268E169CE4833432B43666E48
:1052500015680B4328403343034313605368E568E4
:10526000C948A66923F440532B4382425360656AC0
:105270004FD09068236AC54F20F06E4020F4306014
:10528000334303439360D36A23F00F032B43BA42A3
:10529000D36200F0C481BE4B9A4220D0BD4B9A42EB
:1052A00000F02781BC4B9A4200F07E81BB4B9A42B2
:1052B00013D103F5E033D3F8883003F44073B3F52A
:1052C000807F00F0EA8040F24D81B3F5007F00F06E
:1052D0007A81B3F5407F00F01A810120D5E003F513
:1052E000E633AF4AD3F8883003F00C03D35CB1F552
:1052F000004F00F09C80082B00F2F284DFE813F0EE
:105300003901B0006701F004D100F004F004F004AA
:105310000B019168A34821F06E4121F430613143C3
:105320009160D36A23F00F032B43D362D0F8883007
:1053300003F44063B3F5806F00F0A3814CD9B3F55B
:10534000006F00F07581B3F5406FC6D1002D00F0FD
:105350000382012D00F04183022D00F05583032DBF
:1053600000F07483042D00F08983052D00F0A183E3
:10537000062D00F0C983072D00F0E683082D00F00C
:105380000184092D00F03A840A2D00F047840B2D8A
:1053900014BF4FF4004080200823626802EB4201F2
:1053A00081429AD8B0EB023F97D8082B95D801A13B
:1053B00051F823F085590008DB52000839590008DC
:1053C000DB520008A3580008DB520008DB5200083B
:1053D000DB52000833580008002B7FF47EAFFCF747
:1053E000EBFA636A03B3012B00F0F582022B00F0A5
:1053F000E982032B00F0E382042B00F01F83052BCE
:1054000000F01983062B00F06A83072B00F09A83C3
:10541000082B00F0B583092B00F0EE830A2B00F077
:10542000FB830B2B08BF000A002370B3B5E7082BE2
:105430003FF653AF01A252F823F000BF1D580008F9
:10544000E1560008CF570008DB52000867570008F4
:10545000DB520008DB520008DB52000873570008DB
:10546000FCF7BCFA626A03460ABB6268002003EBE1
:105470005203B3FBF2F39BB2A3F110014FF6EF72AC
:1054800091423FF62AAF2268D36000234FF0011209
:10549000C4E91A232367BDE8F088B1F5004F00F096
:1054A0006281FBF721FE626A0346002ADDD0012AF1
:1054B00000F07082022A00F0BA81032A00F0B48161
:1054C000042A00F07382052A00F06D82062A00F09B
:1054D000A882072A00F0CA82082A00F0E282092A7C
:1054E00000F0F5820A2A00F033830B2ABDD11B0A93
:1054F000BBE703F5E433D3F8883003F03003102B17
:10550000CBD02FD9202B5ED0302B7FF4E6AEB1F577
:10551000004F00F02E81002D00F0DF80012D00F003
:105520004B82022D00F06582032D00F07782042D5E
:1055300000F09982052D00F0B182062D00F0C482A2
:10554000072D00F0E982082D00F01083092D00F0EE
:105550001F830A2D00F05B830B2D14BF4FF4004313
:10556000802382E7002B7FF4B8AEB1F5004F00F046
:105570005581FCF721FA626A0346002A3FF475AFB1
:1055800095E700BFF369FFCF00800040003801407D
:105590000044004000480040004C004000500040E3
:1055A000089B08080010024003F5E233D3F8883066
:1055B00003F0C003402B3FF470AFD3D9802B02D04F
:1055C000C02BA4D089E6B1F5004F00F00081002D7A
:1055D00000F08180012D00F0ED81022D00F00C82A1
:1055E000032D00F01982042D00F03B82052D00F000
:1055F0005382062D00F06682072D00F08B82082D65
:1056000000F0B282092D00F0C1820A2D00F0FD8267
:10561000C24B4FF224420B2D08BF134625E7C04A68
:10562000C04BD2F8882002F0030213441B7C5EE6D4
:10563000002D00F09580012D00F0D381022D00F0A7
:10564000E081032D00F0FF81042D00F01482052D70
:1056500000F02C82062D00F05482072D00F07C8291
:10566000082D00F09882092D00F0AB820A2D00F081
:105670002583AA484FF224430B2D08BF1846022366
:105680008BE6FBF731FD636A03B3012B00F0A181C8
:10569000022B00F09C81032B00F09681042B00F07C
:1056A000C881052B00F0C281062B00F02582072B54
:1056B00000F05082082B00F07782092B00F0A382C3
:1056C0000A2B00F0A7820B2B08BF000A0423002836
:1056D0003FF4DBAE61E6914BC7E64FF40043C4E60E
:1056E000FCF77CF9626A02B3012A00F05581022AB4
:1056F00000F05E81032A00F07781042A00F08A819D
:10570000052A00F0A981062A00F0BE81072A00F0D0
:10571000E081082A00F0FC81092A00F02C820A2A84
:1057200000F027820B2A08BF000A6268530803EBC7
:105730004003B3FBF2F39BB2A3F110014FF6EF72FB
:1057400091423FF6CAAD23F00F022168C3F3420332
:105750001343CB60002098E64FF4004008231CE67A
:105760006E48022319E6FBF7BFFC626A002ADCD010
:10577000BAE7002D00F01481012D00F03F81022DC9
:1057800000F05E81032D00F07381042D00F08B8109
:10579000052D00F0A981062D00F0CA81072D00F02B
:1057A000EC81082D00F01182092D00F079820A2D7C
:1057B00000F039820B2D14BF4FF480334FF4807307
:1057C000626803EB5203B3FBF2F39BB2B4E7002D24
:1057D00000F0E480012D00F01B81022D00F03A81E1
:1057E000032D00F04F81042D00F06781052D00F09E
:1057F0008181062D00F0B381072D00F0D081082DA6
:1058000000F0E681092D00F04E820A2D00F054824E
:10581000454B464A0B2D08BF1346D1E7FCF7CCF8A1
:10582000626A002A81D05FE7414AA2FB03239B08FA
:105830001BE6636A03B3012B00F04D81022B00F0DD
:105840007D81032B00F0AD81042B00F0B681052B88
:1058500000F02382062B00F01D82072B00F0368219
:10586000082B00F02F82092B00F042820A2B00F057
:105870003B820B2B00F049824FF4000500265308B1
:10588000E81846F1000100235DF048FB0346A0F54F
:105890004071284A91423FF620AD22680020D36033
:1058A000F3E5FBF721FC636A064600270BB3012BE7
:1058B00000F0EE80022B00F00281032B00F02F811C
:1058C000042B00F04E81052B00F08D81062B00F09B
:1058D0008181072B00F0AD81082B00F0A781092BF7
:1058E00000F01A820A2B00F014820B2B04BF060A68
:1058F000002762684FEA072C53084FEA062B1BEB80
:1059000003004CEA166C4FF000034CF100015DF00F
:1059100005FB0346A0F54071BBE700BF0024F4007F
:1059200000100240089B08080048E80148E8010010
:10593000ABAAAAAAFFFC0F00636A03B3012B00F015
:10594000D680022B00F0F780032B00F02F81042B70
:1059500000F03081052B00F0AC81062B00F0A58112
:10596000072B00F0BA81082B00F0B481092B00F05E
:10597000C6810A2B00F0C0810B2B00F0C381B04D13
:1059800000267CE7FCF718F8636A06460027002B20
:10599000AFD08CE75B0868E54008C6E6A94B0FE787
:1059A0004FF480330CE7A84AA2FB0323DB085CE535
:1059B0008008BAE6A54B58E54FF4804355E5A44B63
:1059C000A3FB003080082FE5A14BA3FB003080082B
:1059D0007CE640087AE6400826E54FF4804008233C
:1059E000DBE49A480223D8E4994BA3FB00239808F0
:1059F0009BE64FF4005338E5964B36E54FF40043F1
:105A0000DEE62B469348C8E44FF400500823C4E474
:105A1000914BD5E6C00888E6904B26E541F25553F8
:105A200023E58B4AA2FB0323DB081EE5864BA3FB81
:105A30000030C0084AE6844BA3FB0030C008F3E402
:105A40004FF48043BCE685480223A6E441F255505A
:105A50000823A2E47D4BB3E67B4BA3FB0023D808CD
:105A600063E67F4B01E54FF48053FEE41B09FCE441
:105A700042F6AA23A4E67A4802238EE44FF480502B
:105A800008238AE4774B9BE60C23B0FBF3F04CE64B
:105A90007F084FEA36062CE7734BE6E440F6CC432A
:105AA000E3E45B09E1E44FF4005389E66E48022326
:105AB00073E440F6CC4008236FE4664B80E686082A
:105AC000002716E7694BD0E440F6AA23CDE49B09F2
:105AD000CBE4000929E64FF480050026CFE65C4BB5
